:020000040800F2
:100000001008002099010008C5270008C72700082C
:10001000CB270008CF270008D327000800000000E6
:10002000000000000000000000000000D7270008CA
:10003000D927000800000000DB2700085331000822
:10004000B3010008B3010008B3010008B3010008C0
:10005000B3010008B3010008B3010008B3010008B0
:10006000B3010008B3010008B3010008B3010008A0
:10007000B3010008B3010008B3010008B301000890
:10008000B3010008B3010008B3010008B301000880
:10009000B3010008B3010008B3010008B301000870
:1000A000B3010008B3010008B3010008B301000860
:1000B000DD270008FF27000815280008B301000805
:1000C000B3010008B3010008B3010008B301000840
:1000D000B30100083D330008AF330008B301000846
:1000E000B3010008B3010008B301000800F002F8F2
:1000F00000F043F80AA090E8000C82448344AAF17F
:100100000107DA4501D100F038F8AFF2090EBAE87C
:100110000F0013F0010F18BFFB1A43F0010318473B
:10012000383C0000583C0000103A24BF78C878C121
:10013000FAD8520724BF30C830C144BF04680C60ED
:10014000704700000023002400250026103A28BF35
:1001500078C1FBD8520728BF30C148BF0B60704739
:100160001FB503F0A7FA04000020002103F0FEFAF7
:10017000401C60601FBD10B510BD03F076FA11463B
:10018000FFF7EEFF02F0CEFA03F0A6FA03B4FFF792
:10019000F2FF03BC02F0ECFF094880470948004722
:1001A000FEE7FEE7FEE7FEE7FEE7FEE7FEE7FEE727
:1001B000FEE7FEE704480549054A064B7047000084
:1001C0002B290008ED000008100200201008002074
:1001D000100400201004002031490143314A11600D
:1001E000704770B5002100230F22C47804B32D4C52
:1001F000246804F4E064C4F5E064210AC1F1040356
:10020000CA40447804FA03F1847814402143090178
:10021000254C0678A155047804F01F050124AC4054
:1002200005786D11AD0005F1E025C5F8004109E044
:10023000047804F01F050124AC401C4D06787611AB
:1002400045F8264070BD1A4A0A400243154B1B1F51
:100250001A60704739B1134A121D12680243114BDC
:100260001B1D1A6006E00F4A121D126882430D4BD7
:100270001B1D1A607047042808D14FF0E02109695E
:1002800041F004014FF0E022116107E04FF0E0215E
:10029000096921F004014FF0E0221161704700006C
:1002A0000000FA050CED00E000E400E080E100E071
:1002B00080FFFF1F10B50446CC48844208D10121BD
:1002C000042000F02DFB0021042000F029FB46E073
:1002D000C748844208D10121082000F021FB0021F9
:1002E000082000F01DFB3AE0C248844208D10121F9
:1002F000102000F015FB0021102000F011FB2EE073
:10030000BD48844208D10121202000F009FB0021D2
:10031000202000F005FB22E0B848844208D10121EA
:10032000402000F0FDFA0021402000F0F9FA16E02C
:10033000B348844208D10121802000F0F1FA002165
:10034000802000F0EDFA0AE0AE48844207D1012196
:10035000801500F0E5FA0021A01500F0E1FA10BDCB
:1003600010B50121084600F0DBFA0021012000F061
:10037000D7FA10BD2DE9F0410246002500260020E5
:1003800000230024002791F803C00CF00F0591F81A
:1003900003C00CF0100CBCF1000F03D091F802C0A8
:1003A0004CEA050591F800C0BCF1000F31D014688B
:1003B00000202BE04FF0010C0CFA00F3B1F800C064
:1003C0000CEA03069E4220D183004FF00F0C0CFA7A
:1003D00003F7BC4305FA03FC4CEA040491F803C09C
:1003E000BCF1280F06D14FF0010C0CFA00FCC2F84A
:1003F00014C00AE091F803C0BCF1480F05D14FF0DA
:10040000010C0CFA00FCC2F810C0401C0828D1D323
:100410001460B1F800C0BCF1FF0F34DD5468002057
:100420002EE000F1080C4FF0010808FA0CF3B1F8C7
:1004300000C00CEA03069E4221D183004FF00F0C4E
:100440000CFA03F7BC4305FA03FC4CEA040491F8E8
:1004500003C0BCF1280F05D100F1080C08FA0CF814
:10046000C2F8148091F803C0BCF1480F07D100F125
:10047000080C4FF0010808FA0CF8C2F81080401C74
:100480000828CED35460BDE8F0814FF6FF7101809B
:10049000022181700421C1707047024600209368D8
:1004A0000B400BB1012000E0002070470146886836
:1004B00080B2704702460020D3680B400BB1012088
:1004C00000E0002070470146C86880B270470161B3
:1004D0007047416170470AB1016100E041617047B6
:1004E000C16070474FF480320A438261816182614A
:1004F00082698269704702460020434B18684FF6B4
:100500008073184040EA021008433F4B1860704760
:100510003E49C8617047F0B50A4600230024002117
:10052000002500F00046B6F1004F02D1364EF169C9
:1005300001E0354E7168C0F3034583B200F4401604
:10054000B6F5401F08D121F070612F4E766826F075
:1005500070662D4F7E6012E000F48016B6F5801FA5
:1005600006D1032606FA05F4A14341F0706106E0C6
:10057000460D360103FA06F6B14341F0706122B12F
:10058000460D360103FA06F6314300F00046B6F197
:10059000004F02D11C4EF16101E01B4E7160F0BDB5
:1005A00030B500228B071C0F0F2303FA04F2164B01
:1005B00008338C1053F824309343134C08348D10B7
:1005C00044F8253023468C1053F824308C07240F30
:1005D00000FA04F423430C4C08348D1044F8253001
:1005E00030BD0A49DC310860704700000008014056
:1005F000000C0140001001400014014000180140AF
:10060000001C014000200140000001400000204289
:10061000DF48006840F00100DD4908600846406896
:10062000DC490840DA49486008460068DA49084071
:10063000D74908600846006820F480200860084612
:10064000406820F4FE0048604FF41F008860704747
:10065000CF49096821F48031CD4A116011460968FB
:1006600021F480211160B0F5803F03D0B0F5802FD8
:100670000ED106E0C649096841F48031C44A1160D0
:1006800007E0C349096841F4A021C14A116000E0B4
:1006900000BF00BF704710B50146002200230020B4
:1006A0004A11012A02D1BA4C236806E0022A02D17B
:1006B000B74C236A01E0B64C636A01F01F020124C3
:1006C00094401C400CB1012000E0002010BD38B562
:1006D000002000900024002500BF3120FFF7DBFF41
:1006E00005460098401C00900098B0F5A06F01D01E
:1006F000002DF2D03120FFF7CEFF08B1012400E039
:100700000024204638BD01460020A14A106820F090
:10071000F80040EAC10010607047A04908607047C7
:10072000024600209A4B586820F47C1042EA0103EC
:100730001843974B586070479849086670470146C0
:100740000020934A506820F003000843506070472F
:100750008F48406800F00C007047014600208C4A2A
:10076000506820F0F00008435060704701460020B8
:10077000874A506820F4E0600843506070470146A3
:100780000020834A506820F4605040EAC100506065
:10079000704729B17E4A527A02437D4B5A7204E077
:1007A0007B4A527A82437A4B5A7270477B49D831DE
:1007B0000860704701460020754A506820F44040A8
:1007C0000843506070470021714A20321170704A0E
:1007D00082F82010012802D004280AD104E0012167
:1007E0006B4A2032117005E00521694A20321170F0
:1007F00000E000BF00BF7047694908607047644966
:10080000096A0143624A11627047654944390860C8
:10081000704730B500210022002400235C4D6D6834
:1008200005F00C0121B1042905D0082923D105E0E8
:100830005C4D056022E05B4D05601FE0544D6D6826
:1008400005F47012524D6D6805F48034022505EBF5
:1008500092421CB9544D554305600BE04C4D6D68F8
:1008600005F400351DB1504D5543056002E04D4D76
:100870005543056002E04B4D056000BF00BF444D8D
:100880006D6805F0F0010909484D6B5C0568DD40B5
:1008900045603F4D6D6805F4E061090A434D6B5CAE
:1008A0004568DD4085603A4D6D6805F46051C90AC0
:1008B0003E4D6B5C4568DD40C560354D6D6805F4A7
:1008C0004041890B3A4D6B5CC568B5FBF3F505619A
:1008D00030BD29B12E4A526902432D4B5A6104E0C2
:1008E0002B4A526982432A4B5A61704729B1284AE0
:1008F00092690243264B9A6104E0254A9269824339
:10090000234B9A61704729B1214AD2690243204B97
:10091000DA6104E01E4AD26982431D4BDA617047F6
:1009200029B11B4AD2680243194BDA6004E0184A25
:10093000D2688243164BDA60704729B1144A1269B3
:100940000243134B1A6104E0114A12698243104BAF
:100950001A61704712494039086070470F49C864EE
:1009600070470B49C87170470948406A40F0807071
:1009700007494862704701460020054A92680A40CC
:100980000AB1012000E000207047014988727047D9
:10099000001002400000FFF8FFFFF6FE0000424298
:1009A0008004424200127A0000093D00000000204D
:1009B0001000002010B50446FE48844208D10121F1
:1009C000C014FFF7ADFF0021E014FFF7A9FFC4E05A
:1009D000B4F1804F08D101210846FFF7AEFF002196
:1009E0000120FFF7AAFFB8E0F348844208D10121B3
:1009F0000220FFF7A2FF00210220FFF79EFFACE0DC
:100A0000EE48844208D101210420FFF796FF00211F
:100A10000420FFF792FFA0E0E948844208D10121B9
:100A20000820FFF78AFF00210820FFF786FF94E0E7
:100A3000E448844208D101211020FFF77EFF002105
:100A40001020FFF77AFF88E0DF48844208D10121B7
:100A50002020FFF772FF00212020FFF76EFF7CE0CF
:100A6000DA48844208D101214014FFF759FF0021E0
:100A70006014FFF755FF70E0D548844209D1012189
:100A8000C804FFF74DFF00214FF40020FFF748FF97
:100A900063E0D048844209D101210805FFF740FFF7
:100AA00000214FF48010FFF73BFF56E0CA48844214
:100AB00009D101214805FFF733FF00214FF4001051
:100AC000FFF72EFF49E0C548844208D101214020AC
:100AD000FFF733FF00214020FFF72FFF3DE0C04824
:100AE000844208D101218020FFF727FF00218020C8
:100AF000FFF723FF31E0BB48844208D10121801574
:100B0000FFF71BFF0021A015FFF717FF25E0B648F0
:100B1000844209D101210804FFF702FF00214FF4AC
:100B20008030FFF7FDFE18E0B048844209D1012172
:100B30004804FFF7F5FE00214FF40030FFF7F0FE08
:100B40000BE0AB48844208D101218804FFF7E8FE9E
:100B500000214FF48020FFF7E3FE10BD0022028841
:100B6000944B98420ED0994B98420BD0B0F1804FE5
:100B700008D0914B984205D0904B984202D0904BB0
:100B8000984204D14FF68F731A404B881A438D4B0D
:100B9000984207D08C4B984204D04FF6FF431A403E
:100BA000CB881A4302808B8883850B880385814B11
:100BB00098420BD0854B984208D08B4B984205D079
:100BC0008A4B984202D08A4B984201D10B7A038615
:100BD00001238382704770B5002400220023058C16
:100BE0004FF6FE7635400584028C8388048B4FF6E1
:100BF0008F752C40B51E2C400D882C43751E2A4045
:100C00000D892A434D882A436A4DA8420BD06F4D67
:100C1000A84208D0744DA84205D0744DA84202D015
:100C2000734DA84213D14FF6F7752A404D892A43D8
:100C30004FF6FB752A408D882A434FF6FF652B40FF
:100C40004FF6FF552B408D892B43CD892B43838055
:100C50000483CD888586028470BD70B5002400228F
:100C60000023058C4FF6EF7635400584028C83888F
:100C7000048B48F6FF752C404FF6FF452C400D883D
:100C80004FF6FF7606EA05252C434FF6DF752A401E
:100C90000D8906EA05152A434D8806EA05152A43FB
:100CA000444DA84202D0494DA8421DD14FF67F7550
:100CB0002A404D894FF6FF7606EA05152A434FF67E
:100CC000BF752A408D8806EA05152A434FF6FF3581
:100CD0002B404FF2FF752B408D8906EA85052B438B
:100CE000CD8906EA85052B4383800483CD8805875B
:100CF000028470BD70B5002400220023058C4FF6DD
:100D0000FF6635400584028C8388848B4FF68F758F
:100D10002C404FF6FC752C400D882C434FF6FF55A8
:100D20002A400D894FF6FF7606EA05252A434D88AD
:100D300006EA05252A431F4DA84202D0234DA842AA
:100D40001DD14FF2FF752A404D894FF6FF7606EA16
:100D500005252A434FF6FF352A408D8806EA0525EA
:100D60002A434EF6FF752B404DF6FF752B408D89BB
:100D700006EA05152B43CD8906EA05152B4383802A
:100D80008483CD888587028470BD70B500220023DE
:100D90000024058C4EF6FF7635400584038C84884C
:100DA000828B48F6FF752A404FF6FF452A400D8892
:100DB00020E00000002C014000040040000800403A
:100DC000000C0040001000400014004000340140BE
:100DD000004C014000500140005401400018004008
:100DE000001C004000200040004001400044014041
:100DF000004801404FF6FF7606EA05252A434DF6E6
:100E0000FF752B400D8906EA05352B434D8806EA10
:100E100005352B43FA4DA84202D0FA4DA84208D11D
:100E20004BF6FF752C408D894FF6FF7606EA851547
:100E30002C4384808283CD88A0F84050038470BD09
:100E4000828B4FF2FF331A408283828B4FF6FF73FF
:100E500003EA01231A4382837047F0B50C46154616
:100E6000002200210026078C4EF6FF7C07EA0C07C3
:100E70000784828B018C4FF6FF7707EA043640F631
:100E8000FF473A404FF6FF7707EA05273A434FF608
:100E9000FF7707EA03373A43D94FB8420ED0D94F0C
:100EA000B8420BD0B0F1804F08D0D74FB84205D030
:100EB000D64FB84202D0D64FB84206D14DF6FF7792
:100EC000394046F48057394305E047F6FF5739402B
:100ED00044F48057394382830184F0BD828B4FF6FE
:100EE000F3731A408283828B0A4382837047F0B582
:100EF0000C461546002200210026078C4FF6FF6C99
:100F000007EA0C070784828B018C4FF6FF7707EA0C
:100F100004264FF60C773A404FF6FF7707EA03179F
:100F20002F433A43B64FB8420ED0B64FB8420BD01B
:100F3000B0F1804F08D0B44FB84205D0B34FB8429B
:100F400002D0B34FB84206D14FF6FF57394046F4AE
:100F50008077394305E04FF2FF57394044F48077FA
:100F6000394382830184F0BD028B4FF2FF331A4074
:100F70000283028B4FF6FF7303EA01231A430283B5
:100F80007047F0B50C461546002200210026078C5C
:100F90004FF6EF7C07EA0C070784028B018C4FF6B3
:100FA000FF7707EA041640F6FF473A404FF6FF770F
:100FB00007EA03373A434FF6FF7707EA05273A4334
:100FC0008F4FB8420ED08F4FB8420BD0B0F1804F48
:100FD00008D08D4FB84205D08C4FB84202D08C4F0C
:100FE000B84206D14FF6DF77394046F01007394353
:100FF00005E04FF65F77394044F01007394302832C
:101000000184F0BD028B4FF6F3731A400283028B0A
:101010000A4302837047F0B50C46154600220021B2
:10102000068C4FF6FE773E400684028B018C4FF60D
:101030000C7632407E1C06EA03162E433243704E75
:10104000B0420ED06F4EB0420BD0B0F1804F08D0FE
:101050006D4EB04205D06D4EB04202D06C4EB042E3
:1010600006D14FF6FD76314044F00106314305E0EC
:101070004FF6F576314044F0010631430283018496
:10108000F0BD70B505460C465D4885420ED05D4802
:1010900085420BD0B5F1804F08D05B48854205D022
:1010A0005A48854202D05A48854200D100E000BF2C
:1010B000208850B92389A28861882846FFF7ABFFB2
:1010C000E1882846FFF79EFF25E0208804280AD102
:1010D0002389A28861882846FFF753FFE1882846C4
:1010E000FFF742FF17E0208808280AD12389A28849
:1010F00061882846FFF7FBFEE1882846FFF7EEFEF1
:1011000009E02389A28861882846FFF7A6FEE188C6
:101110002846FFF795FE70BD2DE9F04105460C46C7
:1011200000260127608808B9022600E00026A08872
:10113000012801D1022700E001272088A0B92389D6
:10114000A28861882846FFF766FFE1882846FFF7F6
:1011500059FF23893A4631462846FFF712FFE188B6
:101160002846FFF701FF13E02389A28861882846FB
:10117000FFF707FFE1882846FFF7F6FE23893A4686
:1011800031462846FFF747FFE1882846FFF73AFF38
:10119000BDE8F0810A884B881A438B881A43CB88B4
:1011A0001A430B891A434B891A438B891A43A0F8B7
:1011B000442070474FF6FF71818000210180C1807B
:1011C0004180017270470021018041808180C1808F
:1011D000018141818181C18170470021018041806D
:1011E000012181800021C18001817047002101809F
:1011F00041808180C18001814181818170470000EF
:10120000002C014000340140000400400008004070
:10121000000C004021B1028842F00102028004E08B
:1012200002884FF6FE731A400280704731B1B0F861
:10123000442042F40042A0F8442005E0B0F84420E5
:10124000C2F30E02A0F8442070471AB183890B4301
:10125000838102E083898B43838170478182704759
:1012600041EA0203A0F8483070471AB183890B4362
:10127000838102E083898B438381704701894FF624
:10128000F8721140018170470A46002101894FF62A
:101290008F73194011430181704730B504460D46E4
:1012A00029462046FFF7F0FF208940F00700208103
:1012B00030BD2DE9F04104460D4616461F46602D0F
:1012C00006D13B46012231462046FFF75AFE05E093
:1012D0003B46012231462046FFF79DFE2946204627
:1012E000FFF7D2FF208940F007002081BDE8F081A0
:1012F00030B50C4600210189C9B24FF6FF7505EAE9
:101300000325154325432943018130BD2DE9F041D3
:1013100005460E4617469846002443463A4631464F
:101320002846FFF7E5FF2C894FF6F870044044F09B
:1013300007044FF68F70044044F070042C81BDE820
:10134000F081F0B504460D4616461F463B46324630
:1013500029462046FFF7CCFF208940F480402081B9
:10136000F0BD0185828270470A46002101884FF650
:101370008F731940114301807047F0B50C46154634
:101380001E460021002200230189028B038C4FF6A8
:10139000F877394021434FF6FC473A4040F20117B5
:1013A0003A434FF6DD773B404FF6FF7707EA0617E3
:1013B0002F433B43018102830384F0BD0A46002191
:1013C000018B4FF68F7319401143018370470A4612
:1013D0000021018B48F6FF7319404FF6FF7303EAB3
:1013E00002231943018370470A460021818B4FF67F
:1013F0008F7319401143818370470A460021818B06
:1014000048F6FF7319404FF6FF7303EA02231943AE
:101410008183704721B1028842F08002028004E09B
:1014200002884FF67F731A400280704721B182888C
:1014300042F00402828004E082884FF6FB731A4077
:101440008280704721B1828842F00802828004E0E5
:1014500082884FF6F7731A408280704721B18288E4
:1014600042F00102828004E082884FF6FE731A4047
:10147000828070470A460021018B4FF6F7731940AE
:101480001143018370470A460021018B4FF2FF731D
:1014900019404FF6FF7303EA022319430183704793
:1014A0000A460021818B4FF6F7731940114381835F
:1014B00070470A460021818B4FF2FF7319404FF6A7
:1014C000FF7303EA02231943818370470A46002110
:1014D000018B4FF6FB7319401143018370470A4695
:1014E0000021018B4FF6FF3319404FF6FF7303EADB
:1014F00002231943018370470A460021818B4FF66E
:10150000FB7319401143818370470A460021818B88
:101510004FF6FF3319404FF6FF7303EA02231943D6
:10152000818370470A460021018B4FF67F73194073
:101530001143018370470A460021018BC1F30E015C
:101540004FF6FF7303EA02231943018370470A46EB
:101550000021818B4FF67F731940114381837047BF
:101560000A460021818BC1F30E014FF6FF7303EA97
:1015700002231943818370470A460021018C4FF6EC
:10158000FD7319401143018470470A460021018C04
:101590004FF6F77319401143018470470A46002142
:1015A000018C4FF6DF7319404FF6FF7303EA021305
:1015B0001943018470470A460021018C4FF67F735E
:1015C00019404FF6FF7303EA021319430184704771
:1015D0000A460021018C4FF6FF5319404FF6FF7366
:1015E00003EA02231943018470470A460021018C53
:1015F0004FF2FF7319404FF6FF7303EA02231943BA
:10160000018470470A460021018C4DF6FF73194092
:101610004FF6FF7303EA023319430184704730B574
:10162000002301248C40A3B2048C9C430484048CCA
:1016300002FA01F5ADB22C43048430BD30B500236D
:1016400004248C40A3B2048C9C430484048C02FACE
:1016500001F5ADB22C43048430BD70B503460020C3
:1016600000241846183001258D40ACB21D8CA543CE
:101670001D8409B1082909D100EB6100056825F036
:10168000700505600568154305600EE00D1FC5F384
:101690004E052844056825F4E045056005684FF6C9
:1016A000FF7606EA02263543056070BD21B1028847
:1016B00042F00202028004E002884FF6FD731A40F5
:1016C0000280704721B1028842F00402028004E0E7
:1016D00002884FF6FB731A400280704721B182885E
:1016E00042F08002828004E082884FF67F731A40C5
:1016F0008280704702884FF6F7731A400280028892
:101700000A430280704782884FF68F731A408280A6
:1017100082880A438280704702894FF6F8731A4024
:10172000028102890A430281704702894FF67F7362
:101730001A40028102890A430281704781847047FE
:101740008185704781867047018770478187704720
:10175000A0F84010704702884FF6FF431A400280FD
:1017600002880A43028070470146888E704701460E
:10177000088F70470146888F70470146B1F84000D6
:1017800070470146888C70470146088D70470246B5
:101790000020138A0B400BB1012000E000207047AD
:1017A000CA430282704730B502460020002300245D
:1017B000158A05EA0103958905EA010413B10CB104
:1017C000012000E0002030BDCA43028270470000C3
:1017D00010B50446FB48844209D101218803FFF774
:1017E0009FF800214FF48040FFF79AF832E0F64866
:1017F000844209D101214804FFF79FF800214FF4EA
:101800000030FFF79AF825E0F048844209D1012121
:101810008804FFF792F800214FF48020FFF78DF83D
:1018200018E0EB48844209D10121C804FFF785F88C
:1018300000214FF40020FFF780F80BE0E5488442D8
:1018400008D101210805FFF778F800214FF4801036
:10185000FFF773F810BD2DE9F04786B005460E4638
:101860000024A24600BFA1460027B08900B100BFF6
:101870002F462C8A4CF6FF700440F08804432C82DB
:10188000AC894EF6F3100440B08831890843718961
:1018900008430443AC81AC8A4FF6FF400440B08952
:1018A0000443AC8201A8FEF7B4FFC648874202D1C8
:1018B000DDF810A001E0DDF80CA0A88900F40040DC
:1018C00040B10AEBCA0000EB0A1031684900B0FBD6
:1018D000F1F807E00AEBCA0000EB0A103168890052
:1018E000B0FBF1F86420B8FBF0F00401200964219A
:1018F00001FB1089A88900F4004040B1322000EBC0
:10190000C900B0FBF1F000F00700044308E032200A
:1019100000EB09106421B0FBF1F000F00F0004436C
:101920002C8106B0BDE8F0874FF41651016000210C
:101930008180C18001810C2141810021818170471A
:1019400010B502460020108A4FF2FF0318400B88A2
:101950004C8823438C882343CC882343184310822C
:1019600010BD0021018041808180C180704721B17C
:10197000828942F40052828104E082894DF6FF732D
:101980001A4082817047F0B50346002400260025E6
:10199000002040F66A17B94200D100BF1846C1F3D3
:1019A000421401F01F06012707FA06F5012C01D1A8
:1019B0000C3004E0022C01D1103000E014301AB1D8
:1019C00007682F43076002E00768AF430760F0BD78
:1019D0001AB1838A0B43838202E0838A8B4383821A
:1019E0007047028A4FF6F0731A400282028A0A4355
:1019F0000282704782894FF2FF731A408281828986
:101A00000A438281704721B1828942F002028281B9
:101A100004E082894FF6FD731A4082817047028A82
:101A20004FF6DF731A400282028A0A43028270472D
:101A300021B1028A42F48042028204E0028A4BF61B
:101A4000FF731A4002827047C1F308028280704718
:101A500001468888C0F308007047818941F0010180
:101A600081817047028BD2B20283028B42EA01224B
:101A700002837047028B02F47F420283028B0A4387
:101A80000283704721B1828A42F02002828204E000
:101A9000828A4FF6DF731A408282704721B1828AB0
:101AA00042F01002828204E0828A4FF6EF731A40FD
:101AB0008282704721B1828A42F00802828204E069
:101AC000828A4FF6F7731A408282704721B1828969
:101AD00042F40042828103E08289C2F30E028281D5
:101AE000704721B1828A42F40062828204E0828AD5
:101AF0004FF2FF731A4082827047828A4FF6FB735F
:101B00001A408282828A0A438282704721B1828A85
:101B100042F00202828204E0828A4FF6FD731A408C
:101B20008282704702460020B1F5007F00D100BFDD
:101B300013880B400BB1012000E00020704701F436
:101B40000072B2F5007F00D100BFCA430280704727
:101B500070B50246002400230025002040F66A16D6
:101B6000B14200D100BFC1F3421501F01F030126AD
:101B700006FA03F3012D02D19689334006E0022DC7
:101B800002D1168A334001E0968A33400C120126B6
:101B900006FA04F41688344013B10CB1012000E0B9
:101BA000002070BD10B50022002340F66A14A14247
:101BB00000D100BF0A1201249440A3B2DC43048088
:101BC00010BD0000003801400044004000480040C3
:101BD000004C00400050004008B501210820FEF7ED
:101BE00085FE4FF40050ADF8000010208DF8030082
:101BF00003208DF8020069461748FEF7BBFB4FF43F
:101C000000511548FEF763FC08BD10B54FF40051B4
:101C10001148FEF75EFC4FF4FA7001F076FA4FF4CB
:101C200000510D48FEF753FC4FF4FA7001F06DFAC5
:101C300010BD10B54FF400510748FEF74AFC0A20CA
:101C400001F063FA4FF400510348FEF740FC0A200C
:101C500001F05BFA10BD0000000C01400146A1F14B
:101C600030020A2A1AD2DFE802F00507090B0D0F2D
:101C700011131517002011E001200FE002200DE0E4
:101C800003200BE0042009E0052007E0062005E022
:101C9000072003E0082001E0092000BF00BF7047D3
:101CA000F0B585B005460E461421684601F01BFCD0
:101CB0000024002700BF0CE00A20B5FBF0F100FB78
:101CC000115030300DF80400601CC4B20A20B5FB7E
:101CD000F0F5002DF0D12746002406E0381B401E09
:101CE0001DF800003055601CC4B2BC42F6DB002079
:101CF000305505B0F0BD000008B501210820FEF701
:101D0000F5FD4FF48040ADF8000010208DF8030081
:101D100003208DF8020069461748FEF72BFB4FF4AD
:101D200080411548FEF7D3FB08BD10B54FF4804144
:101D30001148FEF7CEFB4FF4FA7001F0E6F94FF4CC
:101D400080410D48FEF7C3FB4FF4FA7001F0DDF956
:101D50004FF480410848FEF7BCFB4FF4FA7001F0E5
:101D6000D4F94FF480410448FEF7B1FB4FF4FA7008
:101D700001F0CBF910BD0000000C014008B50121B5
:101D80000820FEF7B3FD01210846FEF7AFFD40F243
:101D90000330ADF8000018208DF8030003208DF803
:101DA000020069467648FEF7E5FA08BD30B587B00F
:101DB00004460D4601210220FEF7A5FDADF81440B2
:101DC000ADF810500020ADF81600ADF812008DF8F7
:101DD000180004A96B48FEF7C1FE01216948FFF70E
:101DE00019FB6020ADF800000120ADF802000020D2
:101DF000ADF80400ADF80C00ADF80E00ADF806002B
:101E0000ADF80800ADF80A0069465E48FEF772FFBB
:101E100008215C48FFF744FB69465A48FEF7B5FFC6
:101E200008215848FFF745FB01215648FFF7F2F912
:101E300001215448FFF7FAF921465248FFF780FC88
:101E400000215048FFF782FC00214E48FFF780FC3C
:101E500007B030BD30B587B004460D4601210420DF
:101E6000FEF751FDADF81440ADF810500020ADF86C
:101E70001600ADF812008DF8180004A94248FEF7CC
:101E80006DFE01214048FFF7C5FA6020ADF8000063
:101E90000120ADF802000020ADF80400ADF80C0000
:101EA000ADF80E00ADF80600ADF80800ADF80A0078
:101EB00069463548FEF71EFF08213348FFF7F0FA60
:101EC00069463148FEF761FF08212F48FFF7F1FA14
:101ED00001212D48FFF79EF901212B48FFF7A6F9B4
:101EE00021462948FFF72CFC00212748FFF72EFC4C
:101EF00000212548FFF72CFC07B030BD002807DA89
:101F00004142204A3C3211800021121D118005E01F
:101F10001C4A403210800021121F11807047002897
:101F200007DA4142184A403211800021121F118005
:101F300005E0154A3C3210800021121D11807047C7
:101F400000280FDA41420F4A3C32118041420E4ACA
:101F50004032118000210B4A403211800A4A3C3243
:101F600011800CE0074A40321080074A3C32108052
:101F70000021044A3C321180034A403211807047EC
:101F8000000C0140000400400008004008B5012199
:101F90000520FEF7ABFC01217B48FEF7BCFA0121CE
:101FA0007A48FEF7B8FA4FF40140ADF8000003207C
:101FB0008DF8020010208DF8030069467448FEF782
:101FC000D9F901210920FEF791FC48F23800ADF85B
:101FD000000003208DF8020010208DF803006946F0
:101FE0006C48FEF7C7F908BD10B56B48007811289A
:101FF00013D2DFE800F0BD09131F29353F4B5561AF
:102000006B77818D939BA100644840884FF080419D
:102010008885C9135F48FEF75AFAA9E05F484088EF
:1020200040F6C911081A89078885C9135948FEF76F
:1020300050FA9DE0594880884FF080418885891585
:102040005348FEF744FA93E05448808840F6C9119B
:10205000081A8907888589154D48FEF73AFA87E0FE
:102060004E48C0884FF08041888520214948FEF7BE
:102070002EFA7DE04948C08840F6C911081A890740
:10208000888520214348FEF724FA71E043480089FF
:102090004FF08041888510213E48FEF718FA67E02E
:1020A0003E48008940F6C911081A89078885102121
:1020B0003848FEF70EFA5BE0384840894FF080411F
:1020C000888508213348FEF702FA51E033484089F9
:1020D00040F6C911081A8907888508212D48FEF79E
:1020E000F8F945E02D4880894FF080418885C91373
:1020F0002748FEF7ECF93BE02848808940F6C911F3
:10210000081A89078885C9132148FEF7E2F92FE0EC
:102110002248C0894FF08041888529E01F48C08946
:1021200040F6C911081A8907888521E01B48008AF2
:102130004FF0804188851BE01848008A40F6C9119D
:10214000081A8907888516480068401C14490860E9
:1021500008460068192807D1002008601148006867
:10216000C0431149C1F8B80100200B49087000BFF5
:1021700000BF09480078401C0749087010BD10B521
:10218000FFF732FF10BD00000002300000043000F5
:1021900000080140000C0140140000204400002011
:1021A00018000020B88121420080214208B54FF478
:1021B000A060FEF711F81C208DF8000000208DF8BB
:1021C000010001208DF802008DF803006846FEF73B
:1021D00008F808BD0EB501210846FEF794FB4FF044
:1021E0008040FEF7E7FB0920ADF804004720ADF87A
:1021F00000000020ADF806008DF80800ADF80200E0
:1022000069464FF08040FEF7A9FC01218807FFF7DF
:10221000C7FA012211469007FFF717F800214FF087
:102220008040FEF7F7FF0EBD10B5FFF7BFFFFFF7C9
:10223000D1FF10BD10B501218807FEF7EBFF10BDDF
:1022400010B500214FF08040FEF7E4FF10BD000004
:1022500008B501210420FEF749FB4FF48040ADF89A
:10226000000028208DF8030069467548FEF782F8C3
:102270004FF46050ADF8000010208DF803000320EB
:102280008DF8020069466E48FEF774F808BD38B54F
:1022900004460120009000206A4948700120009007
:1022A0002EE0BDF80000204018B10120664908600A
:1022B00002E0002064490860012063490839086091
:1022C000102000F00AFF00206049C1F8AC01102086
:1022D00000F003FF01205D49C1F8AC010846D0F8C9
:1022E000380130B157484078BDF8001008435549CF
:1022F0004870BDF800004FF6FF7101EA4000009001
:10230000BDF80000FF28CCDD38BD10B500204E49D7
:10231000091F08604E490878FFF7B9FF4C49487813
:10232000FFF7B5FF01204949C1F8B00145484078A1
:10233000732801D1002010BD0120FCE71CB500204E
:1023400001900120009000203F49091F086040498A
:102350000878FFF79CFF3E494878FFF798FF022076
:10236000019033E00120009024E001203649083933
:10237000086000203549C1F8AC01102000F0ADFE26
:1023800001203249C1F8AC010846D0F8380150B1FB
:102390002C489DF80410405CBDF800100843294902
:1023A0009DF804208854BDF800004FF6FF7101EA43
:1023B00040000090BDF80000FF28D6DD102000F09E
:1023C0008CFE9DF80400401CC0B201909DF80400F2
:1023D0000928C7DB01201C49091F08601CBD00201B
:1023E00004E00021174A1154411CC8B20928F8DB47
:1023F000704710B5FFF7F3FFFFF7A0FF1148C07853
:102400001049097940EA01201249088000240FE0B0
:10241000114810F81400401E012101FA00F00D4986
:102420000988084010B9601CC0B210BD601CC4B25D
:10243000102CEDDB0020F8E701460248405C7047B5
:1024400000080140D8000020B401214200002142D0
:10245000200000201E000020220000202DE9F0476F
:10246000CB480078002877D00020C9490870FFF7D2
:10247000C0FFC84908600820FFF7DEFFC6490860B2
:102480000720FFF7D9FFC54908600620FFF7D4FFF2
:10249000C34908600520FFF7CFFFC2490860FFF776
:1024A00034FFC149087008460078002854D1B94863
:1024B0000068401F0C2873D2DFE800F006891589F8
:1024C0006C825E73234F3140B84840883230B74940
:1024D00048800846408840F69801884202DB08465A
:1024E000B249488074E0B14840883238AF494880EA
:1024F00008464088B0F5487F02DC4FF448704880B9
:1025000066E0AA4840884B38A84948800846408879
:10251000B0F5487F02DC4FF44870488058E0A3488B
:1025200040884B30A14948800846408840F69801D1
:10253000884202DB08469D49488049E09B48408824
:1025400064389A49488008464088B0F5487F02DCE4
:102550004FF4487048803BE0DAE0944840886430AB
:10256000924948800846408840F69801884202DB3C
:1025700008468E4948802BE08C4840887D388B493E
:10258000488008464088B0F5487F02DC4FF4487028
:1025900048801DE0FFF74DFB0020FFF7D1FC17E05E
:1025A00015E0824840887D30804948800846408850
:1025B00040F69801884202DB08467C49488007E0E3
:1025C000FFF737FB4FF44870FFF7BAFC00E000BF9D
:1025D00000BF70480068082805D174484088193841
:1025E0007249488008E06B480068062804D16F48AB
:1025F000408819306D49488068480068782808DDAF
:1026000066480068882804DC40F2DC50674948804E
:102610004BE062480068002821DB604800687828A9
:102620001DDC5E490968C1F1780001F08AF9804635
:102630005F4A604B01F09CF9064600225E4B01F0B8
:1026400095FA044601F050F95849488008464088F8
:10265000B0F5487F29DC4FF44870488025E04F48AA
:102660000068882821DD4D480068FF281DDC4B49A3
:102670000968A1F1880001F064F906464C4A4D4B07
:1026800001F076F9044600224B4B01F085F88046B4
:1026900001F02AF9454948800846408840F69801EB
:1026A000884202DB0846414948803D480068782856
:1026B00007DD3B480068882803DC0020FFF740FC6A
:1026C00026E03748006800280FDB35480068782886
:1026D0000BDC33490968C1F18801490001EB410273
:1026E00002EBC100FFF72CFC12E02D48006888289F
:1026F0000EDD2B480068FF280ADC29490968C1F172
:102700008801490001EB410202EBC100FFF718FC10
:10271000BDE8F08710B5202000F0F7FC01201C492F
:10272000087010BD00F0A4FCFFF7E6FAFFF754FABA
:10273000FFF76BFAFFF7F9FAFFF78AFDFFF774FD71
:10274000FFF778FD022000F08AFD012000F087FDF0
:10275000FFF71CFC4FF4E131184800F090FD4FF4F6
:10276000E131174800F08BFDFFF708FB05214FF41E
:102770007A70FFF71BFB05214FF47A70FFF76AFBB5
:1027800005E0FFF7C7FF00F01FFEFFF767FEF8E761
:1027900070000020740000208800002084000020C9
:1027A000900000208C0000207C00002044000020CD
:1027B0009A99999999991540007097400044004062
:1027C00000380140704700BFFEE700BFFEE700BFD2
:1027D000FEE700BFFEE770477047704710B5012164
:1027E0008807FEF7E0FF48B101218807FEF7ECFFFC
:1027F000FFF7C5FC01218807FEF7D2FF10BD10B519
:1028000001210F48FEF7CFFF18B101210C48FEF758
:10281000DBFF10BD10B501210A48FEF7C4FF10BD53
:1028200010B501210848FEF7BEFF38B10121064866
:10283000FEF7CAFF01218807FEF7B2FF10BD0000B6
:102840000004004000080040000C00400CB50020CF
:10285000019000906C48006840F480306A4908603C
:1028600000BF6948006800F4003000900198401CE7
:102870000190009818B90198B0F5A06FF1D16248A5
:10288000006800F4003010B10120009001E0002049
:1028900000900098012843D15C48006840F0100087
:1028A0005A4908600846006820F00300086008469E
:1028B000006840F002000860534840685249486090
:1028C0000846406848600846406840F480604860B8
:1028D0000846406820F47C1048600846406840F490
:1028E000E81048600846006840F08070086000BF4B
:1028F0004548006800F000700028F9D04248406860
:1029000020F00300404948600846406840F002005B
:10291000486000BF3C48406800F00C000828F9D12E
:102920000CBD10B5FFF792FF10BD10B5364800681A
:1029300040F00100344908600846406834490840C6
:102940003149486008460068324908402E4908600D
:102950000846006820F4802008600846406820F49B
:10296000FE0048604FF41F008860FFF7DAFF4FF069
:1029700000602949086010BD10B500210020002228
:10298000214B5B6803F00C0121B1042906D0082912
:1029900028D107E0214B224C236027E01F4B204C1D
:1029A000236023E0184B5B6803F47010164B5B68E0
:1029B00003F48032022303EB904022B9194B4343C6
:1029C000174C23600DE0104B5B6803F4003323B118
:1029D000144B4343124C236003E0104B4343104C11
:1029E000236003E00D4B0E4C236000BF00BF064B7D
:1029F0005B68C3F303130C4CE15C094B1B68CB40D1
:102A0000074C236010BD000000100240002002406F
:102A10000000FFF8FFFFF6FE08ED00E000127A006C
:102A20009C00002000093D00A000002010B50446D5
:102A30000622FEA1204600F00BFD28B10422FDA1D4
:102A4000204600F005FD08B9012010BD0020FCE77C
:102A500010B504460622F9A1204600F0F9FC28B181
:102A60000422F8A1204600F0F3FC08B9012010BDB3
:102A70000020FCE710B504460622F4A1204600F031
:102A8000E7FC28B10422F3A1204600F0E1FC08B9DC
:102A9000012010BD0020FCE710B504460622EFA17E
:102AA000204600F0D5FC28B10422EEA1204600F01B
:102AB000CFFC08B9012010BD0020FCE710B504468A
:102AC0000422EAA1204600F0C3FC08B9012010BD91
:102AD0000020FCE710B504460422E6A1204600F0E1
:102AE000B7FC08B9012010BD0020FCE710B5044672
:102AF0000422E2A1204600F0ABFC08B9012010BD81
:102B00000020FCE710B504460422DEA1204600F0B8
:102B10009FFC08B9012010BD0020FCE710B5044659
:102B20000422DAA1204600F093FC08B9012010BD70
:102B30000020FCE710B504460622D6A1204600F08E
:102B400087FCB8B10622D5A1204600F081FC88B1EF
:102B50000622D4A1204600F07BFC58B10622D3A166
:102B6000204600F075FC28B10422D2A1204600F0D6
:102B70006FFC08B9012010BD0020FCE710B5044629
:102B80000522CEA1204600F063FC08B9012010BD4B
:102B90000020FCE710B504460522CAA1204600F03B
:102BA00057FC08B9012010BD0020FCE710B5044611
:102BB0000522C6A1204600F04BFC08B9012010BD3B
:102BC0000020FCE710B504460522C2A1204600F013
:102BD0003FFC08B9012010BD0020FCE710B50446F9
:102BE0000522BEA1204600F033FC08B9012010BD2B
:102BF0000020FCE710B504460522BAA1204600F0EB
:102C000027FC08B9012010BD0020FCE710B50446E0
:102C10000322B6A1204600F01BFC08B9012010BD1C
:102C20000020FCE770B506463446A4A1304600F00B
:102C3000FDFB04465CB12D21204600F0EDFB04466F
:102C4000641C204600F0DBFB0546A9494D8070BDA1
:102C500070B5064634469BA1304600F0E7FB0446BB
:102C60005CB12D21204600F0D7FB0446641C2046B1
:102C700000F0C5FB05469E498D8070BD70B50646C7
:102C8000344692A1304600F0D1FB04465CB12D21C0
:102C9000204600F0C1FB0446641C204600F0AFFB58
:102CA00005469349CD8070BD70B50646344689A16E
:102CB000304600F0BBFB04465CB12D21204600F0FD
:102CC000ABFB0446641C204600F099FB054688498E
:102CD0000D8170BD70B50646344680A1304600F0C7
:102CE000A5FB04465CB12D21204600F095FB04466F
:102CF000641C204600F083FB05467D494D8170BD74
:102D000070B50646344677A1304600F08FFB044686
:102D10005CB12D21204600F07FFB0446641C204658
:102D200000F06DFB054672498D8170BD2DE9FE4FA7
:102D3000054600260027B046B146B246B3460020FD
:102D4000029001900090002468E0029801280ED1C2
:102D5000285D502809D0285DFEF780FF814606EBEC
:102D6000860009EB4000C6B201E000200290019805
:102D7000012824D1285D542801D0012000E0002042
:102D8000295D232901D0012100E00021084040B144
:102D9000285DFEF763FF824607EB87000AEB4007DA
:102DA0000DE00020019040F6C410874200D907468C
:102DB000504921F8167050480660002700260098F8
:102DC00001281BD1285DFEF749FF834608EB8800E8
:102DD0000BEB40084749A1F80080601C285C0D28D7
:102DE0000CD1B8F1640F09D808464349096830F896
:102DF00011003F49404A126821F81200285D23283B
:102E000001D101200290285D502801D101200190BC
:102E1000285D542801D101200090641C285D0A28F7
:102E200002D0B4F5FA7F90D3BDE8FE8F3C425550F6
:102E3000443E000042555044000000003C42444ED5
:102E4000443E000042444E44000000003C424C54CA
:102E5000443E0000424C5444000000003C425254A6
:102E6000443E000042525444000000004255414498
:102E70000000000042554D440000000042554B4404
:102E80000000000042555344000000004255534EDC
:102E9000000000003C424C54553E00003C42444E71
:102EA000553E00003C425550553E00003C425254B5
:102EB000553E000042535444000000003C5355501E
:102EC0002D0000003C534C542D0000003C53444E58
:102ED0002D0000003C5352542D0000003C53444C44
:102EE0002D0000003C5344522D0000003C5A4C0081
:102EF00044000020B0000020C000002010B50446AF
:102F00002046FFF793FD40B155480068FEF7F6FFF5
:102F100053480068FFF703F8A1E02046FFF798FD4B
:102F200050B14F4800684042FEF7E8FF4C48006847
:102F30004042FEF7F4FF92E02046FFF79BFD48B1C8
:102F400047480068FEF7DAFF454800684042FEF750
:102F5000E6FF84E02046FFF79FFD48B14048006847
:102F60004042FEF7CBFF3E480068FEF7D8FF76E010
:102F70002046FFF7DFFD30B10020FEF7BFFF002045
:102F8000FEF7CDFF6BE02046FFF7F8FD18B12046B5
:102F9000FFF748FE63E02046FFF7FCFD18B120462E
:102FA000FFF756FE5BE02046FFF700FE18B1204613
:102FB000FFF764FE53E02046FFF704FE18B12046F9
:102FC000FFF772FE4BE02046FFF708FE18B12046DF
:102FD000FFF780FE43E02046FFF70CFE18B12046C5
:102FE000FFF78EFE3BE02046FFF768FD68B11C4806
:102FF000006864301A49086008460068B0F57A7FB6
:103000002DD34FF47A70086029E02046FFF762FD67
:1030100068B11348006864381149086008460068C0
:10302000B0F52F7F1BD84FF42F70086017E02046B3
:10303000FFF768FD30B10B480068C0430A49C1F88A
:10304000B4010CE02046FFF769FD28B14FF40051B0
:103050000648FDF73CFA02E02046FFF767FE10BD88
:1030600080000020B481214200802142000C0140F8
:1030700030B53A4800683A4AB0FBF2F1B1F1807FCE
:1030800001D301201DE021F07F40401E4FF0E022DF
:10309000506150170F22002807DA13071D0E314B1D
:1030A00000F00F04241F1D5503E013071C0E2E4BC8
:1030B0001C5400BF00204FF0E022906107201061F7
:1030C000002008B100BFFEE74FF0E020006920F0CB
:1030D00001004FF0E021086130BD244908604FF045
:1030E000E021096941F001014FF0E022116100BFC8
:1030F0001E4909680029FBD14FF0E021096921F040
:1031000001014FF0E022116170474FF47A714143A1
:10311000164A11604FF0E021096941F001014FF0BA
:10312000E022116100BF114909680029FBD14FF06D
:10313000E021096921F001014FF0E022116170479F
:103140000A48006820B109480068401E0749086025
:10315000704700B5FFF7F4FF00BD00009C000020A1
:1031600040420F0018ED00E000E400E0C80000203D
:1031700000BF704700BF9A4A128802F04002002A3E
:10318000F9D0C2B2964B1B1D1A80704708B54FF498
:10319000A060FDF721F825208DF8000001208DF8B2
:1031A000010000208DF8020001208DF80300684620
:1031B000FDF717F808BD08B54FF4A060FDF70CF84F
:1031C00026208DF8000001208DF801008DF8020006
:1031D0008DF803006846FDF704F808BD08B5012125
:1031E00044F20400FDF782FB4FF40070ADF80000DC
:1031F00003208DF8020018208DF8030069467948F5
:10320000FDF7B8F84FF48060ADF8000004208DF8A9
:10321000030069467348FDF7ADF808BD08B5012104
:103220000420FDF763FB01214804FDF76CFB04203B
:10323000ADF8000003208DF8020018208DF803007F
:1032400069466848FDF796F80820ADF800000420AC
:103250008DF8030069466348FDF78CF808BD10B58A
:103260000446012C04D1FFF791FFFFF7B7FF05E0FB
:10327000022C03D1FFF79FFFFFF7D0FF10BD7FB5F2
:1032800005460C4600940020ADF80400ADF8060099
:10329000ADF80800ADF80C000C20ADF80A00694646
:1032A0002846FEF7D8FA012240F225512846FEF7BB
:1032B0006AFB01212846FEF75AFB7FBD70B5044624
:1032C0000D4629462046FEF7BFFB00BF40212046A1
:1032D000FEF728FC0028F9D070BD70B506460C46F4
:1032E000002505E014F8011B3046FFF7E7FF6D1CD1
:1032F000207810B1B5F5FA7FF4D370BD10B586B063
:103300000446142101A800F0EEF801A92046FEF7BA
:10331000C7FC01A93248FFF7E0FF06B010BD70B549
:1033200004460D4621462E48FFF7D7FF2846FFF7F3
:10333000E5FF2DA12A48FFF7D0FF70BD10B540F280
:1033400025512748FEF704FC80B340F2255124485C
:10335000FEF728FC2248FEF77BFBC4B22348007826
:1033600020BB234823490968445422480068401C74
:103370002049086008460068401E1D49085C0D2869
:1033800009D01C480068401E085C3E2803D019483C
:103390000068FF280AD900201549164A1268885487
:1033A00001201249087000201249086010BD10B5B4
:1033B00040F225511048FEF7CBFB20B140F22551D9
:1033C0000D48FEF7EFFB10BD10B50848007828B196
:1033D0000020064908700648FFF790FD10BD000068
:1033E00000380140000801400A000000CE00002023
:1033F000E1000020D400002000440040704770B578
:10340000064600F09BF80468054630460A22002173
:1034100000F098F82C6070BD401ECAB210F8011F71
:103420008A4202D00029F9D10020704730B5054604
:103430000B462A4613F8014B12F8010B08B1A042C3
:10344000F8D01CB1002802D06D1CF1E7284630BD31
:1034500040EA010370B59B072ED14FF00136042AD4
:103460002AD308C810C99D1B9D43121F15EAC61513
:1034700017D0D8B2E1B2401A50EA056110D198B223
:10348000A1B2401A50EA05410AD123F07F4024F04E
:103490007F41401A50EA052102D1180EA0EB1460BA
:1034A00070BDA342DBD018BA21BA884201D90120ED
:1034B00070BD4FF0FF3070BD0AB9002070BD10F82C
:1034C000013B11F8014B63B1A3420AD1521E08D04F
:1034D00010F8013B11F8014B1BB1A34201D1521E60
:1034E000EDD1181B70BD4FF0000200B51346944695
:1034F0009646203922BFA0E80C50A0E80C50B1F14C
:103500002001BFF4F7AF090728BFA0E80C5048BF5F
:103510000CC05DF804EB890028BF40F8042B08BFFD
:10352000704748BF20F8022B11F0804F18BF00F8F9
:10353000012B7047704770477047704700487047CD
:10354000AC0100202DE9F04791460F468046044625
:10355000002614F8015B2DB100F030F80068405DE2
:10356000C007F6D12B2D02D02D2D18D0641E4A464F
:103570003946204600F02AF827B13968A14201D126
:10358000C7F800804FF0020471050BD540420028B7
:1035900003DDFFF7D3FF0460A007BDE8F08746F422
:1035A0008066E4E70028F8DAFFF7C8FF04606FF0F0
:1035B0000040F2E700487047AC01002010B500F071
:1035C00079F8001D10BD00BFA50100002DE9F05FD6
:1035D000824615468B4600270AF10104B946007859
:1035E000302801D09DB113E014F8010B0127782891
:1035F00003D0582801D045B10AE00DB1102D07D1F4
:10360000002714F8010B102502E0082500E00A2528
:103610000026B0460EE005FB080005FB06F1012779
:103620001FFA80F801EB1046B6F5803F00D3B9468B
:1036300014F8010B294600F041F80028EBDABBF141
:10364000000F05D00FB1641E00E05446CBF80040D7
:10365000B9F1000F06D0FFF771FF02210160C81E0B
:10366000BDE8F09F48EA0640FAE77546FFF7A2FF7B
:10367000AE4605006946534620F00700854618B05F
:1036800020B5FCF797FDBDE820404FF000064FF055
:1036900000074FF000084FF0000B21F00701AC4687
:1036A000ACE8C009ACE8C009ACE8C009ACE8C009A6
:1036B0008D46704700487047CC0100203A2800D260
:1036C000303820F02002412A01D3A2F1370088428D
:1036D00001D34FF0FF30704710B50446AFF30080C0
:1036E0002046BDE81040FCF751BD00004FF0013C02
:1036F00050F8042B51F8043B9A4221D1A2EB0C0361
:10370000934313EACC1317D150F8042B51F8043B20
:103710009A4215D1A2EB0C03934313EACC130BD1BD
:1037200050F8042B51F8043B9A4209D1A2EB0C0348
:10373000934313EACC13DBD04FF00000704700BF77
:10374000D01A01BAB1FA81F101F0180122FA01F0A0
:10375000CB40C1F12001DBB2C0B2C01A2CFA01F398
:10376000D11A914311EAC311E6D1704710B500296F
:103770000AD00878002807D005487844FFF7B6FF3C
:10378000002801D0002010BD0248784410BD000080
:10379000FE050000F605000010B591EA030F48BFD2
:1037A00083F0004300F1F681841A71EB030C05D21B
:1037B000121943EB0C03001B61EB0C01DFF824E151
:1037C0004FEA1154A4EB135C1EEA430F18BF9EEAA4
:1037D000445F73D023EA0E03DCF1200E21EA04518A
:1037E00043F4801332D322FA0CFE10EB0E0023FABE
:1037F0000CFE41EB0E01CCF1200E03FA0EFE10EB95
:103800000E0051F10001B1F5801FCCF1200E32D233
:1038100001EB045112FA0EF2BDE8104058BF704798
:10382000401C38BF5FEA420218BF7047002814BF2F
:1038300020F0010041F100014FEA410313F5001FA0
:1038400038BF7047A1F1C04100F08AB9012A43EBAB
:103850000302ACF1200CDCF11F0E32BF4FF0000E62
:1038600023FA0CF310EB030041EB0451B4EB115FAE
:10387000D0D0A1EB045101F5801149085FEA300076
:1038800001EB04510ED350F1000038BF12FA0EFEC6
:1038900008D1BDE81040C9E7401C38BF5FEA4202CA
:1038A000CAD1C3E7BDE810404FEA410313F5001F3A
:1038B00038BF7047A1F1C04100F052B99EEA445FA1
:1038C00008D011EA5E0FBDE8104004BF01F00041CE
:1038D00000207047BDE8104070B500F0F3F800BF5D
:1038E00064FBBE3E0000E0FF4FEA1153A3F5806386
:1038F000D3F11E03A8BFD3F1200C08DB4FF0004228
:1039000042EAC12252EA505232FA03F070470942A9
:103910000BD4102BC4BF0020704703F5787CBCF19A
:10392000FF3F05D04FF0FF3070474FF00000704769
:1039300070B500F0C7F800BF49922480002070479E
:10394000F0E710F0004248BF4042B0FA80F310FAAE
:1039500003F10AD0C3F11D0303F580634FEA415020
:1039600002EB035202EBD12170474FF00000704789
:10397000DFF848C170B51CEA111E1EBF1CEA131502
:103980009EEA0C0F95EA0C0F00F06F8081EA0304A9
:1039900023EA4C134EEAD47E21EA4C1141F4801103
:1039A00043F48013AE44A1FB024CA0FB0365AEF1CF
:1039B0007F7E361955EB0C05A1FB034C4CF100033F
:1039C000A0FB021C16EB0C06654153F100030942F3
:1039D00018BF46F0010613F4007F0BD14FEA033104
:1039E0004FEA0530340341EA155140EA16506FF0B2
:1039F00003020AE04FEAC3214FEAC520F40241EA7C
:103A0000555140EA56506FF0020202EB2E4201EB94
:103A1000025585EACE710AD05FEA440C18BF24F043
:103A2000004450F1000041F1000120EAD47040F25E
:103A3000FE7C624500D270BDA84214BF4FF08044A6
:103A40004FF04044002E08BF0024BEF1806FA8BF95
:103A5000A1F1C041BDE8704080F282804FF00000CB
:103A600001F1C04101F0004170479EEA0C0F0CEAE1
:103A7000131518BF95EA0C0F06D04FF0000081EA2D
:103A8000030E0EF0004170BD00F01CF88900013EED
:103A900000F007B800F009B84FEA430C5FEA5C5C3D
:103AA00008D081EA030100F05BB84FEA410C5FEAFD
:103AB0005C5CF6D14FF00000014970470000FF0741
:103AC0000000F87F0EF1020E2EF0030E5EF8046B7C
:103AD000364205D4012A43EB030515F5001F12D821
:103AE000012841EB010C1CF5001F0CD80ED14FEA48
:103AF000D17C15F5001F0CEB4C0C0CF1020C08BF2F
:103B00004CEBD37C04E04FF0080C01E04FEAD37C8F
:103B10000CEB4C0526FA05F606F00706B6F1040C88
:103B200006D20EEB860CBDE870404CF0010C6047ED
:103B3000DFE80CF0090B02024FF000414FF00000EB
:103B4000A1F5002170BD19461046012851EB010472
:103B500018BFD4F5001484BF002001F0004170BDEF
:103B60000808A0F500114FEA3101704791EA030FF0
:103B700010B581F000413FF517AE83F0004300F02F
:103B800009B8000010B591EA030F48BF83F0004365
:103B90003FF50AAE841A71EB030C07D212198CF0B0
:103BA000004C43EB0C03001B61EB0C01DFF8A4E1BC
:103BB0004FEA1154A4EB135C1EEA430F18BF9EEAB0
:103BC000445F00F0B08023EA6E03524221EA0451C0
:103BD000C3EB6E0338BF5B1EDCF1200E25D322FA47
:103BE0000CFE10EB0E0043FA0CFE41EB0E01CCF183
:103BF000200E03FA0EFE10EB0E0051F10001CCF185
:103C0000200E29D412FA0EF201EB0451BDE8104047
:103C100058BF7047401C1CBFB2F1004F70470028CE
:103C20000CBF491C20F00100704712EB020E43EB61
:103C3000030218BF4FF0010E4EEA4202ACF1200C15
:103C4000DCF11E0E54D943FA0CFE10EB0E0051F1BC
:103C5000FF31CCF11E0ED5D50EF1010E12FA0EFE7B
:103C6000404141EB010101EB445C5FEA5C5C10D92F
:103C700010EBDE7001EB045138BFBEF1004FBDE820
:103C8000104018BF704700280CBF491C20F00100ED
:103C9000704730D24FEAD42C11F5001124F400649F
:103CA0001BD0B1FA81F20B3AA41AA41ED2F1200360
:103CB000914030FA03F31943904001EBCC71002C92
:103CC00001EB0451BDE81040A8BF704701F1C041AD
:103CD0004FF0000001F000417047B0FA80F310FA95
:103CE00003F100D110BDE41A173C4805C90AE4E706
:103CF00001EB045110BD491001EB0451BDE8104027
:103D00004FEA300002E04FF0000170474A0008BF60
:103D10000042F8D0B2F5001F28BF704701F0004103
:103D20004FF0000070479EEA445F07D011EA5E0F33
:103D3000BDE8104004BF002100207047BDE81040DE
:103D400070B5FFF7BFFE00BF40DFF63E83F00041D5
:103D5000104670470000E0FF883E00080000002089
:103D6000D800000028010008603F0008D8000020AB
:103D70003807000044010008100100004300000063
:103D8000F8FFFFFF0040404040404040404041417C
:103D90004141414040404040404040404040404020
:103DA00040404040400502020202020202020202BA
:103DB00002020202022020202020202020202002B7
:103DC0000202020202029090909090901010101047
:103DD00010101010101010101010101010101010E3
:103DE0000202020202028888888888880808080877
:103DF0000808080808080808080808080808080843
:103E0000020202024000000000000000000000006A
:103E100000000000000000000000000000000000A2
:103E20000000000000000000000000000000000092
:103E30000000000000000000000000000000000082
:103E40000000000000000000000000000000000072
:103E50000000000000000000000000000000000062
:103E60000000000000000000000000000000000052
:103E70000000000000000000000000000000000042
:103E80000000000000000000000000000102030428
:103E900001020304060708090204060800000000E6
:103EA00000000000000000000142010002000300C9
:103EB0000400050006000700080009000A000B00C6
:103EC0000C000D000E000F0010000000DC05DC05EA
:103ED000DC05DC05DC05DC05DC05DC05DC050000BB
:103EE000DC050000DC050000DC050000DC0500004E
:103EF000DC0500004006000000000000000000009B
:103F00000000000000000000E803000000000000C6
:103F100000000000000000000000000000000000A1
:103F20000000000000A24A040000000000000000A1
:103F30000102030406070809DC05DC05DC05DC05D5
:103F4000DC05DC05DC05DC050000000000000000ED
:103F50000000000000000000000000000000000061
:04000005080000ED02
:00000001FF
